:10000000CAEF07F0F76A140FF66E000EF722090028
:10001000F550120054656D706572617475726120DF
:100020003D200000F76A340FF66E000EF72209003B
:10003000F55012007C0066616E2000006F6E20009B
:100040006F66660025332E31662043200000EA6A81
:10005000280EE96EEF500DE0020E016E006A002ED0
:10006000FED7012EFBD7970E006E002EFED7EF2E87
:10007000F3D71200C69E9E9664C0C9FF020EC6BE8C
:1000800005D09EA6FED7000EC5BC010E016E120063
:1000900060C001F05FC000F05F66012A0900F5CF83
:1000A000EEFF002EFBD7012EF9D7F86A1200C580AB
:1000B000C5B0FED7780E646FDDDF646BDBDF286AC6
:1000C0002750285C17E228502524016E000E2620B8
:1000D000036E0150F66E03C0F7FFF86AEA6A290E54
:1000E000E96E606B010E5F6ED3DF29C064F0C2DF82
:1000F000282AE6D7C584C5B4FED754EF03F0020E14
:100100006127C580C5B0FED7780E646FB3DF646B1E
:10011000B1DF6251B009636F646FACDF61510F0BE7
:10012000636F646FA7DF6139006E0F0E0016005019
:100130000F0B1009636F646F9DDFC584C5B4FED7D4
:10014000120038501408D8A022D039500708D8A07F
:100150001ED038C006F039C007F03B6A38C03AF00C
:100160003A363B363A363B36FC0E3A163D6A38C0D4
:100170003CF0D8903834026E3D34036E02503A267B
:1001800003503B223AC061F039C062F0B8DF120080
:10019000366A365007081FE3616B36C062F0AFDF86
:1001A000C580C5B0FED7780E646F64DF400E646F03
:1001B00061DF376A37507F0809E309A003D0646B19
:1001C00059DF02D0646956DF372AF4D7C584C5B435
:1001D000FED7362ADED7386A396AB3DF120026C066
:1001E00028F025C027F028C003F027C0E9FF28C069
:1001F000EAFFEF5204E0272AD8B4282AF4D7255082
:10020000275C006E26502858036E00C001F0026E75
:1002100012005EC0E9FF5FC0EAFFEF50FF0AEF6E19
:100220005E2AD8B45F2A602FF4D71200C580C5B00B
:10023000FED7780E646F1EDF400E646F1BDF616BAC
:100240006051615D0BE261515E24E96E000E5F203A
:10025000EA6EEFCF64F00EDF612BF2D7C584C5B430
:10026000FED71200596A5D6A08A206D0D8904034C1
:100270005A6E020E5B6E04D040C05AF0010E5B6EE7
:10028000596A5A50595CD8B0A6D0036A5950410FE8
:10029000E96E000E0320EA6EEF6A5D505D2A3E248F
:1002A000016E000E3F20036E0150F66E03C0F7FF93
:1002B000F86AEA6A5E0EE96E606B010E5F6EE8DE58
:1002C0005EC05CF008A061D05CA016D0036A5950F3
:1002D000410F016E000E032201C0E9FF03C0EAFFD7
:1002E000EF80036A5950410F016E000E032201C0D6
:1002F000E9FF03C0EAFFEF825CA216D0036A5950FF
:10030000410F016E000E032201C0E9FF03C0EAFFA6
:10031000EF84036A5950410F016E000E032201C0A1
:10032000E9FF03C0EAFFEF865CA416D0036A5950C8
:10033000410F016E000E032201C0E9FF03C0EAFF76
:10034000EF88036A5950410F016E000E032201C06D
:10035000E9FF03C0EAFFEF8A5CA616D0036A595092
:10036000410F016E000E032201C0E9FF03C0EAFF46
:10037000EF8C036A5950410F016E000E032201C039
:10038000E9FF03C0EAFFEF8E09D0036A5950410F1D
:10039000E96E000E0320EA6E5CC0EFFF08A218D0E1
:1003A000010E5924036A410F016E000E032203C09F
:1003B0005FF0036A5950410FE96E000E0320EA6EA8
:1003C000EFCF60F05FC0EAFF01C0E9FF60C0EFFF60
:1003D0005B50592656D709B006D05F6A410E5E6E53
:1003E0005AC060F016DF5F6A410E5E6E5AC060F060
:1003F0001DDF08A0C3D05D6A5F6A06C05EF05E368E
:100400005F365E365F36FC0E5E16D89006345E268A
:10041000000E5F22010E0724606F5EC061F0626F04
:100420006EDE596A5A50595CD8B09AD0036A595056
:10043000410FE96E000E0320EA6EEF6A5D505D2AFF
:100440003E24016E000E3F20036E0150F66E03C085
:10045000F7FFF86AEA6A5E0EE96E606B010E5F6E86
:1004600017DE5EC05CF05CA816D0036A5950410FDD
:10047000016E000E032201C0E9FF03C0EAFFEF8016
:10048000036A5950410F016E000E032201C0E9FFBB
:1004900003C0EAFFEF825CAA16D0036A5950410FED
:1004A000016E000E032201C0E9FF03C0EAFFEF84E2
:1004B000036A5950410F016E000E032201C0E9FF8B
:1004C00003C0EAFFEF865CAC16D0036A5950410FB7
:1004D000016E000E032201C0E9FF03C0EAFFEF88AE
:1004E000036A5950410F016E000E032201C0E9FF5B
:1004F00003C0EAFFEF8A5CAE16D0036A5950410F81
:10050000016E000E032201C0E9FF03C0EAFFEF8C79
:10051000036A5950410F016E000E032201C0E9FF2A
:1005200003C0EAFFEF8E08A218D0010E5924036A17
:10053000410F016E000E032203C05FF0036A5950A1
:10054000410FE96E000E0320EA6EEFCF60F05FC04E
:10055000EAFF01C0E9FF60C0EFFF5B50592662D798
:1005600009B006D05F6A410E5E6E5AC060F051DE7F
:100570005F6A410E5E6E5AC060F058DEF5EF02F021
:1005800008A203D0020E396E02D0010E396E36C0B9
:10059000E9FF37C0EAFF200EEF5C3A6E3B6A3B5240
:1005A00003E13A506C0802E23B6A3A6AD8903A3466
:1005B0003C6E3B343D6E3A34026E3B34036E023681
:1005C0000336FC0E021602503C243A6E03503D20C6
:1005D0003B6E720E3A243C6EFD0E3B203D6E3F6E2C
:1005E0003CC03EF0060E406E3DD6395006263D6AB0
:1005F00006C03CF03C363D363C363D36FC0E3C16E3
:10060000D89006343C26000E3D223CC061F007C065
:1006100062F075DD362AD8B4372A382EB8D71200E2
:1006200035500C0802E1B4DD23D035500D0805E14A
:10063000386A07C039F085DD1BD035500A0812E151
:10064000085208E1010E0724366E06C038F0396EF4
:1006500078DD07D0020E0724366E06C038F0396EFA
:1006600070DD06D0376A350E366E010E386E88DFC3
:1006700012000900F5520CE0F6CF25F0F7CF26F076
:10068000F5CF35F0CDDF25C0F6FF26C0F7FFF1D757
:1006900085EF03F00A0E286EDADCFD0E266E580E8A
:1006A000256E190E276E03D50980086A71DD386A38
:1006B000396A47DDEA6A160EE96E000EA3DC0A000D
:1006C0000900F550EE6E0009FBE1266A160E256E54
:1006D00086DD02C026F001C025F0376A160E366EA0
:1006E00001C038F04DDF080E256EFA0E286EAFDC23
:1006F000252EFBD7030E086E050E386E396E21DDF0
:10070000360EF66E000EF76EB4D7FBEF07F0000E54
:10071000016EC250830B0110C26E0D0E006E002ED2
:10072000FED7C282C2B2FED7C4CF16F016C001F007
:100730000FEF08F08E0E006E24C001F023C002F00F
:10074000036A015209E102C001F0026A080E005E6C
:10075000015202E1006A08D0D89001BE04D00236EE
:1007600001360006F9D7019E12003550D8B471D079
:10077000006E3950D8B46DD0002604E3810E0026F7
:1007800068E204D07F0E005E64E363E036C03DF0B3
:100790003A503D1A368E3A8E38503C02F4CF3FF034
:1007A00037503B02F4CF03F0F3CF3EF03C02F3505E
:1007B0003F26F4503E22000E032238503B02F350F5
:1007C0003F26F4503E22000E026A032202223650D7
:1007D0003C02F3503E26F4500322000E0222365013
:1007E0003B02F3500326F4500222000E016A01225C
:1007F00038503A02F3503E26F4500322000E0222F3
:10080000012237503A02F3500326F4500222000E20
:10081000012236503A02F3500226F4500122002AF7
:1008200001BE05D03E360336023601360006000E04
:100830003EAE0AD0032A02220122015005E10250F5
:1008400003E1035001E1002A3DBE018E3DAE019E51
:1008500004D0006A016A026A036A120017C01EF01F
:100860001B501E1A1EAE05D0D894D89017BED88043
:100870002FD017C01EF01AC01FF016501F5E06E0E2
:100880001EAE26D0D850010AD86E22D01BC01FF051
:1008900017501F5E06E01EAE1BD0D850010AD86E5E
:1008A00017D01CC01FF018501F5E06E01EAE10D0FF
:1008B000D850010AD86E0CD01DC01FF019501F5E11
:1008C00006E01EAE05D0D850010AD86E01D0D890EF
:1008D00071EF08F08E0E006E2850005E29C002F005
:1008E0002AC001F0028E005209E0D890025202E1C3
:1008F000015204E002320132002EF7D729AE05D0B2
:10090000011E021E012AD8B4022A12003550B60870
:10091000356E036A36C039F0368ED89036323732AB
:1009200038320332023201320032352EF6D739AE78
:100930000BD0001E011E021E031E002AD8B4012A7D
:10094000D8B4022AD8B4032A14EF05F0D8B203D0E1
:10095000EA6A3D0EE96E006A016A026A036A3D6A4C
:100960003E6A3F6A406A3C503B103A1039102CE016
:10097000200E416ED89035363636373638363D360D
:100980003E363F3640363C50405C08E13B503F5CD1
:1009900005E13A503E5C02E139503D5C0FE33950CD
:1009A0003D5E3A50D8A03A3C3E5E3B50D8A03B3C1E
:1009B0003F5E3C50D8A03C3C405ED88000360136BB
:1009C00002360336412ED6D73DC0EFFF3EC0ECFFC6
:1009D0003FC0ECFF40C0ECFF1200E9502D6E2C50E0
:1009E0002F6E19E02BC038F02AC037F029C036F03E
:1009F00028C035F03C6A3B6A200E3A6E820E396E92
:100A0000B4DE03C02BF002C02AF001C029F000C000
:100A100028F02F2EE7D72BC038F02AC037F029C096
:100A200036F028C035F072D703C02BF002C02AF090
:100A300001C029F000C028F02BAE0DD02D062D8A64
:100A4000281E291E2A1E2B1E282AD8B4292AD8B4CB
:100A50002A2AD8B42B2A3B0E346E9A0E336ECA0E55
:100A6000326E316A0A0E2F6E2C50D8B42D2AD882DD
:100A7000EA6A280EE96E2BC038F02AC037F029C088
:100A800036F028C035F034C03CF033C03BF032C003
:100A90003AF031C039F05ADF015000520FE12C28F2
:100AA0002F5C0CE02D500CE00F0B2F5C01E037E2C7
:100AB0002DBE35D02DBC04D0200E2DD0200E2D16ED
:100AC0002DAA0CD02D9A2C50D8A42D0600502D6E96
:100AD0002D0E356EA5DD2D50006E2D6A2C502F5C2D
:100AE0000AE100502D6E2E0E356E9ADD2D50006EEF
:100AF000200E2D16000E300E2DAA0DD02D9A2C5042
:100B0000D8A42D0600502D6E2D0E356E89DD2D508A
:100B1000006E2D6A300E002600C035F081DDD892BF
:100B200034C038F033C037F032C036F031C035F061
:100B30003C6A3B6A3A6A0A0E396E08DF03C034F039
:100B400002C033F001C032F000C031F02F2E8FD739
:100B500012000900F6CF29F0F7CF2AF0F5CF35F0D3
:100B60005FDD29C0F6FF2AC0F7FF282EF2D7B5EFC8
:100B700006F02C50D8B4A5D0386E3050D8B4A1D0DF
:100B8000385E05E37F0E3826D8B09BD006D0810EA4
:100B9000385ED8A096D0D8B494D038C000F0016A9E
:100BA000026A036A376A2DC036F0368E2EC035F0E1
:100BB0002FC034F0190E386E3350345E0DE2010E42
:100BC000355E0AE2365E08E2375E06E2372A362AEA
:100BD000352A3350342628D03250355E12E2010EC9
:100BE000365E0FE2375E0DE2372A362A325035265E
:100BF0003350342619E3352A17E1362A15E1372A0E
:100C000013D031508009365E0EE2010E375E0BE2E2
:100C1000372A31508009362632503526E9E3362A04
:100C2000E7E1372AE5D70380382E01D00BD0D890E2
:100C30003436353636363736D890033602360136F6
:100C40003936BAD739A006D0D890013202320332F1
:100C5000393202D0000635E039BE1ED0D890343685
:100C60003536363637363350345E07E2010E355EA0
:100C700004E2365E02E2375E1AE33250355E05E288
:100C8000010E365E02E2375E12E331508009365EB5
:100C900003E2010E375E0BE3032A09E1022A07E1B2
:100CA000012A05E1002A0DE00132023203322DC093
:100CB00038F03150381A38AE02D0018E06D0019E7D
:100CC00004D0006A016A026A036ADAEF06F0D8907B
:100CD0002832020E28262850340802E2340E286EEC
:100CE000296A295007081CE3285005080CE2036A0A
:100CF00029502A0FE96E000E0320EA6E860EEF6E71
:100D0000060E285E0BD0036A29502A0FE96E000EEA
:100D10000320EA6E800E2824EF6E286A292AE1D784
:100D2000870E2824326E376A2A0E366E090E386E08
:100D300027DCEFEF06F0086A0D0E386E396AA1EC79
:100D400000F0020EE96E26C02BF025C02AF024C068
:100D500029F023C028F0010E2C6E3FDE490EF66EFE
:100D6000000EF76E030E286EF4D6386A376A200E2E
:100D7000366E820E356E26C03CF025C03BF024C096
:100D80003AF023C039F0F1DC03C02BF002C02AF0A6
:100D900001C029F000C028F003C02FF002C02EF0DF
:100DA00001C02DF000C02CF0336A326A316A820E25
:100DB000306EDFD603C02BF002C02AF001C029F04C
:100DC00000C028F087DD01C027F0020E386E396EB2
:100DD000A1EC00F0030E086E27C028F078D7320E81
:100DE000286E27EC00F043EF07F0246A16C023F0CA
:100DF000A1DC03C026F002C025F001C024F000C031
:100E000023F003C038F002C037F001C036F000C054
:100E100035F0A10E3C6EA00E3B6E200E3A6E7D0E9C
:100E2000396EA3DC03C01FF002C01EF001C01DF02C
:100E300000C01CF0246A16C023F07CDC03C038F02C
:100E400002C037F001C036F000C035F0A10E3C6E94
:100E5000A00E3B6E200E3A6E7B0E396E86DC03C010
:100E60002BF002C02AF001C029F000C028F032DDCA
:100E700001C016F01AC026F019C025F018C024F0E1
:100E800017C023F058D7086A16C038F0030E396E21
:100E9000A1EC00F0EA6A200EE96E000E12EC00F000
:100EA0000A000900F550EE6E0009FBE1266A200EEB
:100EB000256EEFEC00F002C024F001C023F0376A89
:100EC000200E366E01C038F0C0EC02F016C038F0CB
:100ED000020E396EA1EC00F0EA6A200EE96E000EF7
:100EE00012EC00F00A000900F550EE6E0009FBE17B
:100EF000266A200E256EEFEC00F002C024F001C03F
:100F000023F0376A200E366E01C038F0C0EC02F0D4
:100F10001B6A020E165C1B5C0CE21BC038F0040E50
:100F2000396EA1EC00F0200E356E10EC03F01B2A98
:100F3000F0D7020E165C236E386E040E396EA1ECEB
:100F400000F0020EE96E1FC02BF01EC02AF01DC07B
:100F500029F01CC028F0010E2C6E3FDD200E356EEE
:100F600010EC03F0430E356E10EC03F0040E162463
:100F70001B6E1B5013080CE31BC038F0040E396EB7
:100F8000A1EC00F0200E356E10EC03F01B2AF1D717
:100F900082EF08F0F86AD09E94869488CB90CB922A
:100FA000CB96040EC86E280EC66EC79EC78C086A04
:100FB00009800B6A0A6A0F01386B396B3A6B776AE2
:100FC000786A796A046A056AC150F00BC16E030E33
:100FD000386F000E396F3A6FC050C00B0709C06EF2
:100FE000C09EC280500E0D6E116A106A0F6A0E6AA2
:100FF00000014AEF03F093928A9293908A80640EE4
:10100000286E27EC00F093908A90020E166EFA0E6E
:10101000286E27EC00F0162EFAD787EF03F001C0F8
:101020000CF0246A0CC023F09AEC03F003C019F012
:1010300002C018F001C017F000C016F003C038F06D
:1010400002C037F001C036F000C035F0A10E3C6E92
:10105000A00E3B6E200E3A6E7D0E396EB5EC03F09D
:1010600003C011F002C010F001C00FF000C00EF07C
:10107000246A0DC023F09AEC03F003C019F002C0FB
:1010800018F001C017F000C016F003C038F002C01D
:1010900037F001C036F000C035F0A10E3C6EA00E56
:1010A0003B6E200E3A6E7D0E396EB5EC03F003C038
:1010B00015F002C014F001C013F000C012F015C00A
:1010C00019F014C018F013C017F012C016F011C0B8
:1010D0001DF010C01CF00FC01BF00EC01AF02EEF58
:1010E00004F003E393928A8202D093928A920DC015
:1010F00016F011C01AF010C019F00FC018F00EC091
:1011000017F073D6040E166EFA0E286E27EC00F058
:10111000162EFAD793908A80640E286E27EC00F082
:1011200093908A90020E166EFA0E286E27EC00F04D
:08113000162EFAD772D7030056
:08FD5800AED580A83FD30040A6
:10FD60008D142000A1C8DA1281EFD9F1DB40A4A6DE
:10FD7000AFFF0000000000000000BE000000000017
:10FD80000300030050F850F850004854FE5424007B
:10FD9000985820D0C800609CAA448000000000034E
:10FDA000000000384482000000824438000002064F
:10FDB0000306020010107C101000A060000000007C
:10FDC000101010101000C0C0000000008040201073
:10FDD00008007CA2928A7C000084FE800000C4A2FD
:10FDE00092928C00448292926C00181412FE1000C1
:10FDF0009E92929262007C92929264000602E212BB
:10FE00000E006C9292926C004C9292927C00CCCC40
:10FE100000000000AC6C00000000001028448200CC
:10FE20004848484848000082442810000402B212A2
:10FE30000C007C82BAAABC00F8141214F800FE92DE
:10FE400092926C007C8282824400FE82824438005E
:10FE5000FE9292828200FE12120202007C82929234
:10FE6000F400FE101010FE000082FE820000608090
:10FE700080807E00FE101824C200FE8080808000FA
:10FE8000FE043804FE00FE040810FE007C8282821C
:10FE90007C00FE1212120C007C82A2C2FC00FE1238
:10FEA0001212EC004C92929264000202FE020200D6
:10FEB0007E8080807E003E4080403E00FE807080DC
:10FEC000FE00C6281028C6000608F0080600C2A2D8
:10FED000928A860000FE8282000008102040800086
:10FEE000008282FE000000080402040880808080F6
:10FEF000800000000204000040A8A8A8F000FE88CE
:10FF00008888700070888888100070888888FE0053
:10FF100070A8A8A8300010FC1212040090A8A8A88D
:10FF20007000FE101010E0000090F480000040808F
:10FF300080907400FE20508800007E8080000000C9
:10FF4000F8087008F000F8080808F0007088888841
:10FF50007000F82828281000102828F88000F808D9
:10FF60000808100090A8A8A848000808FE88880083
:10FF700078808080F800384080403800F8807080B9
:10FF8000F80088502050880018A0A0A0780088C8E9
:10FF9000A898880000106C8200000000FE0000009D
:10FFA00000826C1000000008040810087C7C00002F
:10FFB0000000828282828282FE8282828282FEFEB1
:10FFC00082828282FEFEFE828282FEFEFEFE8282AD
:10FFD000FEFEFEFEFE82FEFEFEFEFEFE82828282AD
:10FFE000FEFEFE828282FEFEFEFE8282FEFEFEFE9D
:10FFF000FE82FEFEFEFEFEFEFEFEFEFEFEFEFEFE9D
:020000040030CA
:0E00000000E31E3C00BF81000FC00FE00F4068
:00000001FF
;PIC18F26K22
;CRC=F89B  CREATED="04-feb-22 14:58"
